:100000000C9434000C9451000C9451000C94510049
:100010000C9451000C9451000C9451000C9451001C
:100020000C9451000C9451000C9451000C9451000C
:100030000C9451000C9451000C9451000C945100FC
:100040000C9451000C9451000C9451000C945100EC
:100050000C9451000C9451000C9451000C945100DC
:100060000C9451000C94510011241FBECFEFD8E026
:10007000DEBFCDBF11E0A0E0B1E0E4EEF8E002C0E9
:1000800005900D92A630B107D9F721E0A6E0B1E0C6
:1000900001C01D92AE31B207E1F70E94B1000C948D
:1000A00070040C94000080E480937C0086E88093C8
:1000B0007A000895ECE7F0E09081907F9083908142
:1000C000892B8083EAE7F0E08081806480838091DF
:1000D0007A0086FDFCCF8091780090917900089598
:1000E00082EA809380008AE1809381008FE19EE420
:1000F000909387008093860084B1866084B90895C8
:100100002BE0AC01249FC001259F900D1124885144
:100110009C4F909389008093880008952BE0AC0158
:10012000249FC001259F900D112488519C4F9093CE
:100130008B0080938A00089566B570E080E090E0BF
:100140000E94770320E030E040E852E40E9403047C
:1001500020E030E04AE754E40E94D4020E944603C3
:100160000895CF93DF9300D000D000D0CDB7DEB795
:100170000E9453000E947000789480910401909135
:1001800005010E94800080910201909103010E946C
:100190008E000E949C0060930A0170930B01809373
:1001A0000C0190930D010E949C00609306017093D6
:1001B0000701809308019093090180E00E945A0092
:1001C0007C0181E00E945A008C0182E00E945A006A
:1001D0009A83898383E00E945A001701200E311E02
:1001E00033201CF42FEF221A320A359427942981E8
:1001F0003A81280F391F332314F42F5F3F4F6901D1
:10020000D594C79449815A814E0D5F1D5A83498305
:10021000552324F44F5F5F4F5A834983A981BA81E4
:10022000B595A795BE83AD83080F191F112314F44C
:100230000F5F1F4F15950795B8012D813E81621BF9
:10024000730B072E000C880B990B0E9477032B0170
:100250003C01B60162197309072E000C880B990B3B
:100260000E94770369837A838B839C830E949C001E
:100270004B015C0180910A0190910B01A0910C014E
:10028000B0910D01A5019401281B390B4A0B5B0BA2
:10029000CA01B9010E94750320E030E04AE754E446
:1002A0000E94D4029B01AC01C301B2010E9403046D
:1002B0009B01AC01609116017091170180911801AA
:1002C000909119010E9468026093160170931701C2
:1002D00080931801909319018D819E81801B910B51
:1002E0009C0122F422273327281B390B809100011F
:1002F0009091010182179307CCF54D815E8104171F
:10030000150754F480910401909105010197909391
:1003100005018093040109C08091040190910501B9
:1003200001969093050180930401809104019091BE
:100330000501992364F08091040190910501853BAA
:10034000910544F4809104019091050105C080E07D
:1003500090E002C084EB90E090930501809304014B
:1003600080910401909105010E94800040921A0141
:1003700050921B0160921C0170921D0180920A0133
:1003800090920B01A0920C01B0920D0183ED90E3CD
:100390000197F1F700C000000E949C004B015C0136
:1003A0008091060190910701A0910801B091090187
:1003B000A5019401281B390B4A0B5B0BCA01B9013B
:1003C0000E94750320E030E04AE754E40E94D40222
:1003D0009B01AC0169817A818B819C810E9403041D
:1003E0009B01AC0160910E0170910F018091100191
:1003F000909111010E94680260930E0170930F01A9
:10040000809310019093110191012C193D09C901AC
:10041000992324F488279927821B930B20910001AC
:100420003091010128173907BCF5C214D30454F4E4
:1004300080910201909103010197909303018093B1
:10044000020109C0809102019091030101969093ED
:10045000030180930201809102019091030199238D
:1004600064F08091020190910301853B910544F471
:10047000809102019091030105C080E090E002C0EC
:1004800084EB90E09093030180930201809102013C
:10049000909103010E948E0089819A81AB81BC8179
:1004A0008093120190931301A0931401B09315014E
:1004B0008092060190920701A0920801B092090172
:1004C000A7EAB1E61197F1F700C0000076CE5058C8
:1004D000BB27AA270E947F020C94C9030E94BB037A
:1004E00038F00E94C20320F039F49F3F19F426F43B
:1004F0000C94B8030EF4E095E7FB0C94B203E92FDB
:100500000E94DA0358F3BA17620773078407950746
:1005100020F079F4A6F50C94FC030EF4E0950B2E74
:10052000BA2FA02D0B01B90190010C01CA01A00145
:100530001124FF27591B99F0593F50F4503E68F1A0
:100540001A16F040A22F232F342F4427585FF3CFE1
:10055000469537952795A795F0405395C9F77EF4B2
:100560001F16BA0B620B730B840BBAF09150A1F0FB
:10057000FF0FBB1F661F771F881FC2F70EC0BA0F81
:10058000621F731F841F48F4879577956795B79509
:10059000F7959E3F08F0B0CF9395880F08F0992704
:1005A000EE0F9795879508950E94E8020C94C90371
:1005B0000E94C20358F00E94BB0340F029F45F3F41
:1005C00029F00C94B20351110C94FD030C94B80360
:1005D0000E94DA0368F39923B1F3552391F3951B35
:1005E000550BBB27AA2762177307840738F09F5F54
:1005F0005F4F220F331F441FAA1FA9F335D00E2EC1
:100600003AF0E0E832D091505040E695001CCAF72D
:100610002BD0FE2F29D0660F771F881FBB1F2617F0
:1006200037074807AB07B0E809F0BB0B802DBF01C7
:10063000FF2793585F4F3AF09E3F510578F00C9496
:10064000B2030C94FD035F3FE4F3983ED4F3869528
:1006500077956795B795F7959F5FC9F7880F911DB7
:100660009695879597F90895E1E0660F771F881FA3
:10067000BB1F621773078407BA0720F0621B730B56
:10068000840BBA0BEE1F88F7E09508950E94E203F1
:1006900088F09F5798F0B92F9927B751B0F0E1F043
:1006A000660F771F881F991F1AF0BA95C9F714C0F3
:1006B000B13091F00E94FC03B1E008950C94FC036A
:1006C000672F782F8827B85F39F0B93FCCF386952C
:1006D00077956795B395D9F73EF490958095709589
:1006E00061957F4F8F4F9F4F0895E89409C097FB06
:1006F0003EF490958095709561957F4F8F4F9F4FF9
:100700009923A9F0F92F96E9BB279395F69587953C
:1007100077956795B795F111F8CFFAF4BB0F11F4FF
:1007200060FF1BC06F5F7F4F8F4F9F4F16C08823A6
:1007300011F096E911C0772321F09EE8872F762FDC
:1007400005C0662371F096E8862F70E060E02AF01D
:100750009A95660F771F881FDAF7880F9695879509
:1007600097F9089597F99F6780E870E060E0089531
:100770009FEF80EC089500240A94161617061806B9
:100780000906089500240A94121613061406050695
:100790000895092E0394000C11F4882352F0BB0F26
:1007A00040F4BF2B11F460FF04C06F5F7F4F8F4F89
:1007B0009F4F089557FD9058440F551F59F05F3FC4
:1007C00071F04795880F97FB991F61F09F3F79F073
:1007D00087950895121613061406551FF2CF4695F5
:1007E000F1DF08C0161617061806991FF1CF869577
:1007F0007105610508940895E894BB27662777275B
:10080000CB0197F908950E9416040C94C9030E9425
:10081000BB0338F00E94C20320F0952311F00C9422
:10082000B2030C94B80311240C94FD030E94DA0364
:1008300070F3959FC1F3950F50E0551F629FF00133
:10084000729FBB27F00DB11D639FAA27F00DB11D4C
:10085000AA1F649F6627B00DA11D661F829F2227D5
:10086000B00DA11D621F739FB00DA11D621F839F5C
:10087000A00D611D221F749F3327A00D611D231F32
:10088000849F600D211D822F762F6A2F11249F5780
:1008900050409AF0F1F088234AF0EE0FFF1FBB1F83
:1008A000661F771F881F91505040A9F79E3F510542
:1008B00080F00C94B2030C94FD035F3FE4F3983E88
:1008C000D4F3869577956795B795F795E7959F5FEC
:1008D000C1F7FE2B880F911D9695879597F908957E
:0408E000F894FFCFBA
:0608E4000A005A005A0050
:00000001FF
